:0300000002176D77
:0C176D00787FE4F6D8FD7581210217B4E6
:10185A0067657464697374616E63653D2566636D5B
:10186A000D0A006274783139303630313033313410
:10187A0000636D002D2C2D2D2D00000000000000AE
:0F188A000000000000000000000000000000004F
:081A3500410051004100500086
:1019FF00758901758CFF758AF6D28C308DFDC28D7D
:011A0F0022B4
:0A1A2100C294D2941219FFC294225D
:10197D00AF8CEFFEAD8AEDFFAC06E4120B1C7B992C
:09198D007ABB7996783C0208F857
:031A4E00C28C2225
:081A3E00E4F58CF58AD28C223C
:1019D900759850758920758DFD758BFDD28ED2AFA6
:0319E900D2AC225B
:081A46008F993099FDC299222D
:1019EC00120E7EFF600C121A46740129F9E43AFAC1
:0319FC0080EE2258
:0B190900121967900051E004F07F0508
:10191400E4FDFCEFFBC3ED9BEC94005015E4FBFAF3
:101924000BBB00010AEB646E4A70F50DBD00010C9F
:0219340080E150
:01193600228E
:101A10007580FFC2B5D2B6C2B4D2B42087F5C2B4C5
:011A200022A3
:1019AF00AE077F05121914C2B5C2B6D2B4AF068FF7
:0519BF008000C2B4220B
:09195E00121967A3A3E02430FF75
:10196700121A10D2B58F80C2B67F05121914D2B4DD
:06197700121914C2B42293
:10199600121A10C2B47F381219AF7F0C1219AF7F1A
:0919A600061219AF7F010219AF0E
:06140D00900018120F0709
:10141300E4FBFA79C87842900018E0FCA3E0FDA34E
:10142300E0FEA3E0FF120A01120B5590001CEEF040
:10143300A3EFF07C007D64120ED6AC06AD07E41278
:101443000B1CA804A905AA06AB07900018E0FCA38F
:10145300E0FDA3E0FEA3E0FF120803E4FBFA79201A
:101463007841120A01120B5590001EEEF0A3EFF023
:1014730090001CE0FEA3E0FF7C007D64120ED6AC5E
:1014830006AD07E4120B1CA804A905AA06AB079036
:101493000018E0FCA3E0FDA3E0FEA3E0FF120803B5
:1014A300C004C005C006C00790001EE0FEA3E0FF15
:1014B3007C007D0A120ED6AC06AD07E4120B1CA805
:1014C30004A905AA06AB07D007D006D005D004129D
:1014D3000803120B55900020EEF0A3EFF0E4FFFE9B
:1014E3007D207C41900018E0F8A3E0F9A3E0FAA383
:1014F300E0FB1208F8C004C005C006C00790001C3A
:10150300E0FEA3E0FF7C037DE8120ED6AC06AD0738
:10151300E4120B1CA804A905AA06AB07D007D00642
:10152300D005D004120803C004C005C006C007904C
:10153300001EE0FEA3E0FF7C007D64120ED6AC0625
:10154300AD07E4120B1CA804A905AA06AB07D00734
:10155300D006D005D004120803C004C005C006C0DD
:1015630007900020E0FEA3E0FF7C007D0A120ED668
:10157300AC06AD07E4120B1CA804A905AA06AB0729
:10158300D007D006D005D004120803120B559000E3
:1015930022EEF0A3EFF0E4FFFE7DC87C429000183A
:1015A300E0F8A3E0F9A3E0FAA3E0FB1208F8C00413
:1015B300C005C006C00790001CE0FEA3E0FF7C2727
:1015C3007D10120ED6AC06AD07E4120B1CA804A9BD
:1015D30005AA06AB07D007D006D005D0041208032E
:1015E300C004C005C006C00790001EE0FEA3E0FFD4
:1015F3007C037DE8120ED6AC06AD07E4120B1CA8E3
:1016030004A905AA06AB07D007D006D005D004125B
:101613000803C004C005C006C007900020E0FEA375
:10162300E0FF7C007D64120ED6AC06AD07E4120B1E
:101633001CA804A905AA06AB07D007D006D005D07D
:1016430004120803C004C005C006C007900022E0CE
:10165300FEA3E0FF7C007D0A120ED6AC06AD07E4C4
:10166300120B1CA804A905AA06AB07D007D006D005
:1016730005D004120803120B55900024EEF0A3EFDB
:10168300F090001CA3E02430FF12195E1219617F51
:0D1693002E12195EA3A3E02430FF02196798
:0A1A2B007F011219AF7F05021914A4
:0617F900900048120F07EA
:1017FF00E490004CF0A3F0E490004EF0A3F09000C2
:10180F004EE0FEA3E0FFEE3395E0FDFC900048E0D4
:10181F00F8A3E0F9A3E0FAA3E0FBD3120EF6401011
:10182F0090004FE004F070D690004EE004F080CEB0
:10183F0090004DE004F0700690004CE004F0900032
:0A184F004CE07004A3E0646470AD87
:01185900226C
:101899001219967F801219AF900051E090186D933C
:1018A900FF600512190980F0E4900051F07FC6121B
:1018B90019AF900051E090187B93FF600512190948
:0818C90080F0E4900051F022D0
:1019C40020B2117F1412191420B20990005074012E
:0519D400F030B2FD221D
:1018D1007FC01219AFE4900051F0900051E0FFD3A6
:1018E1009404748094805016EF90187E93FF12191F
:1018F100677F05121914900051E004F080DC7F200D
:081901001219677F0502191499
:1016A00078007C007D017BFF7A1879857E007F14AD
:1016B000120E58900014120F13000000001219D9D6
:1016C000121899121A2130B3FD121A3E20B3FD12DE
:1016D0001A4E1219C4900050E064017013121A2BB4
:1016E000E4F0900050E0600302176C1219C480F21D
:1016F00012197D900014120F07E4FFFE7D487C4311
:10170000900014E0F8A3E0F9A3E0FAA3E0FB120ACA
:101710009E600740051218D1804A7FC01219AF9011
:101720000014E0FCA3E0FDA3E0FEA3E0FF12140D13
:1017300090001B74FFF0A37418F0A3745AF090008B
:1017400014E0FCA3E0FDA3E0FEA3E0FF90001E1266
:101750000F077B017A007900120FEF7B017A007985
:0C176000001219EC7F3C1219140216C391
:01176C00225A
:10080000020BC1E86480F8E933E83360110460F05A
:10081000ED33EC337009E8FCE9FDEAFEEBFF22045E
:1008200060DED3EB9FEA9EE99DE8C2E78CF0C2F759
:1008300095F0400CE8CCF8E9CDF9EACEFAEBCFFB25
:10084000120B8C85D0F05804700320D5B3E80470E7
:10085000075002B2D5020BCB92D5EC0460F7E4CC82
:10086000C0E0C398F8603B94186008400DD0E0FBEE
:10087000020BA3E4FBFAC9FC8028E830E406E4C9D3
:10088000FBE4CAFCE830E305E4C9CACBFCE8540742
:100890006010F8C3E913F9EA13FAEB13FBEC13FC4D
:1008A000D8F130F52FC3E49CFCEF9BFFEE9AFEEDF0
:1008B00099FDD0E0FBEF4E4D4C701222DB03020B92
:1008C000C8EC2CFCEF33FFEE33FEED33FDED30E7EB
:1008D000EB020BA3EF2BFFEE3AFEED39FDD0E0FB70
:1008E00050130BBB0003020BCBED13FDEE13FEEF19
:0808F00013FFEC13FC020BA343
:1008F800EC4D6011E8497017ED33EC3304600DE4FA
:10090800FCFFFEFD22E933E8330470F8020BC11244
:100918000B8C58046009E4CC248150062850090245
:100928000BCB284003020BC8C0E0EB4A7044B980E7
:1009380006D0E0FB020BB7EF4E701CBD8008EBFF42
:10094800EAFEE9FD80EBE98DF0A4FEE5F00209E19D
:10095800E9CDF9EAFEEBFFEF89F0A4FCE5F0CE89DA
:10096800F0A42EFFE435F0CD89F0A42DFEE435F097
:100978008067EF4E7005BD80D780C3EF8BF0A4ACC5
:10098800F0EE8BF0A42CFCE435F0F8EF8AF0A42C00
:10099800E5F038FCE433CB8DF0A42CFCE5F03BF813
:1009A800EE8AF0A42CFCE5F038F8E433CF89F0A403
:1009B8002CFCE5F038CF3400CE89F0A42FFFE5F009
:1009C8003EFEE433C98DF0A42EFEE5F039CD8AF061
:1009D800A42FFFE5F03EFEE43DFD33D0E0FB5007D9
:1009E8000BBB000F020BCBEC2CFCEF33FFEE33FEFE
:0609F800ED33FD020BA32C
:1009FE00020BCBEC5D046005E859047003020BC1D9
:100A0E00120B8C580460F6EC4860F2EC7004FDFE9C
:100A1E00FF22C860DB2481C85009C39860025006CB
:100A2E00020BC89850CAF582E9294B4A7005AB8271
:100A3E00020BB775F0007C1A7880C3EF9BEE9AED2F
:100A4E0099400DC3EF9BFFEE9AFEED99FDE842F043
:100A5E00DC23ACF0D0E0FFD0E0FED0E0FDAB822096
:100A6E00E7101BEB60BAEC2CFCEF33FFEE33FEED20
:100A7E0033FD020BA3E803F830E705C0F075F00074
:100A8E00EF2FFFEE33FEED33FD40B830E7C280AA04
:100A9E0074F8CC6480CCC86480C8F58204604FC3FF
:100AAE00EB9FF5F0EA9E42F0E99D42F0E89C45F09E
:100ABE00603C501DE5825FFFE582D313CB5BCBF428
:100ACE002B5582FB50280ABA002409B90020088051
:100ADE001DE5825BFBE582D313CF5FCFF4C3132FEB
:100AEE005582FF50090EBE00050DBD00010CC3EB73
:100AFE009FF5F0EA9E42F0E99D42F0E89C45F060D9
:090B0E0007CC4820E701B3EC22FA
:100B170075F020800E75F010800575F0087D007E59
:100B2700007F003392D530D503120EE8EC33401026
:100B3700EF33FFEE33FEED33FDEC33FCD5F0ED2262
:0E0B4700E5F0247EA2D513CC92E7CDCEFF229E
:100B5500EDD2E7CD33EC3392D524814006E4FFFE98
:100B6500FDFC22FCE4CFCECDCC24E0501174FF80F7
:100B7500EDC3CC13CCCD13CDCE13CECF13CF047094
:070B8500F030D5DE020EE89E
:100F8A00E508241BF582E43400F583E00508229085
:100F9A00001830070390001BE475F001120F440299
:100FAA000E7E2000E97F2ED2008018EF540F249085
:100FBA00D43440D4FF30040BEF24BFB41A005003DA
:100FCA002461FFE50960021509050CE50C700205AC
:100FDA000B30070E900018E475F001120F44EF026F
:100FEA000EC40219377403D2078003E4C207F50856
:100FFA00900018120F5BE4F509F50BF50CE5096092
:10100A00077F20120FCD80F5750AFFC201C200C208
:10101A0002C203C205C206C208120F99FF700D3040
:10102A0007057F00120FDEAF0CAE0B22B4255FC29C
:10103A00D5C204120F99FF24D0B40A00501A75F0D1
:10104A000A780930D50508B6FF0106C6A426F62097
:10105A00D5047002D20380D924CFB41A00EF500409
:10106A00C2E5D2040212D0D20180C6D20080C0D218
:10107A000280BCD2D580BAD20580B47F20120FCDAF
:10108A002002077401B5090040F1120F8AFF120FFE
:10109A00CD021007D208D2068095120F8AFB120FD2
:1010AA008AFA120F8AF94A4B700679CE7A137BFFB5
:1010BA0020022EE509602A7E008E82758300120EB8
:1010CA009760060EEE650A70F0C2D5EBC0E0EAC082
:1010DA00E0E9C0E0EE121331D0E0F9D0E0FAD0E056
:1010EA00FB120E7EFF60AAEBC0E0EAC0E0E9C0E0B6
:1010FA00120FCDD0E02401F9D0E03400FAD0E0FBA1
:10110A00E50A0460DCD50AD98087D20280A21213CC
:10111A001360F7E50A700104120BD6A90A600DE5FF
:10112A000A600914F50A1213BBEF60F3EA30E7020A
:10113A00F404C3995079EAF4250A0430E701E40477
:10114A00F50A800D12131360C1EA050A250A120B6B
:10115A00D6EA900047F030E701E4250A04D50A04EC
:10116A0020050114121331E4C0E01213BB900047AA
:10117A00E0601320E70714F0120FB5802204F0D0C4
:10118A00E014C0E07F00120FB5E50A6007120FAC49
:10119A00150A800B300503120FACD0E0021007D0FD
:1011AA00E00480C4121313609EE50A04120BD69061
:1011BA000047EAF0E50A200502600104240412133C
:0111CA0031F3
:1011CB0074FF04C0E01213BB120FB5E50A20050231
:1011DB006003120FACD0E0B50AE87F45120FBF9049
:1011EB000047E07F2B30E7047F2DF404C0E0120FA3
:1011FB00CDD0E075F00A84C0F0120FB6D0E0120F1C
:10120B00B6021007791080027908C206C20880085E
:10121B00D2D5790A8004790AC2D5E50A047002F5A1
:10122B000AE4FAFDFEFF120F8AFC7B082001131261
:10123B000F8AFD7B1030000A120F8AFE120F8AFFF5
:10124B007B20EC3382D592D55013C3E43000069F3C
:10125B00FFE49EFEE42001039DFDE49CFCE4CBF83F
:10126B00C201EC700CCFCECDCCE824F8F870F38033
:10127B0017C3EF33FFEE33FEED33FDEC33FCEB33F3
:10128B00FB994002FB0FD8E9EB300105F8D0E0C425
:10129B0048B201C0E00AEC4D4E4F78207B0070C283
:1012AB00EAB50A0040BCC0E0121333D0F0D0E02006
:1012BB000104C4C0E0C4B201C0F0120FB6D0F0D527
:1012CB00F0EB021007120F6410A453120F58107595
:1012DB004C10714212134F121B44121B49108A43BC
:1012EB00122155114E4611AE4511184713EE5010F1
:1012FB00792D107D2E10A02B108123109E2013D73B
:10130B002A10394800001098E50AB4FF03750A0645
:10131B00120F8AFC120F8AFD120F8AFE120F8AFF20
:10132B00900040020C13790AA2D520031430050952
:10133B00B910020404B9080104A2D5200602500119
:10134B00042002689202B509005034C0E07F2030BF
:10135B0003197F30A20272067205500F12138AC254
:10136B0002C206C205C2087F30800F300503E9C0F8
:10137B00E0120FCD300503D0E0F9D0E0B509CC3049
:10138B0005177F30B9100C120FCD7F583004077F33
:10139B00788003B90803120FCD3002057F2D020FA1
:1013AB00CD7F202008F87F2B2006F322920280CFDE
:1013BB007F00B40700500B2440F582E43400F58322
:1013CB00E0FF22286E756C6C2900D201120F8A3057
:1013DB0001F8C201780930D50108F60210392D50F9
:1013EB00434958120F8A2403B405004001E49013BB
:1013FB00E993120FBE743A120FBED20375090402A1
:02140B00120FBE
:100B8C00E9D2E7C933E833F892D5EDD2E7CD33ECAF
:070B9C0033FC5002B2D52228
:100BA300EC30E7100FBF000C0EBE00080DBD0004B3
:100BB3000BEB6014A2D5EB13FCED92E7FD2274FF5F
:100BC300FCFDFEFF22E480F8A2D574FF13FC7D80B8
:030BD300E480EFCC
:100BD600F920E73624F950037907E4F42402FBE50B
:100BE60082158270021583DBF6E024FB501BE96058
:100BF60014E4F0E582158270021583E004F0B40A6D
:0D0C060008E4F0D9EE7401F00A22C2D522F4
:100C1300ED33EC3392D5FA602AB4FF33EDC2E77BB0
:100C2300FF60067A0C7938E4227A0C794120D504E6
:100C33007A0C793C224E614E002B494E46002D49D9
:100C43004E4600E47A08F0A3DAFC7B00740722C066
:100C530083C082ECC0E0EDC0E0EEC0E0EFC0E0EAAC
:100C630075F010A4CAABF075F04DA42BFBE435F07E
:100C7300FCEA2410FAEB34C5FBEC34D9FCEDC2E7F3
:100C8300FF75F056A4F42411C5F0F434C58FF0A415
:100C93002AE5F03BE43CF020E714120D48D0E0FFD6
:100CA300D0E0FED0E0FDD0E0FC120A018014F40491
:100CB300120D48D0E0FFD0E0FED0E0FDD0E0FC1202
:100CC30008F8D082D083E0FAEDD2E7CD33EC3324B9
:100CD30082FBE4C3CF33CFCE33CECD33CD33DBF37F
:100CE3007B0775F00A846004F0A31B0AE5F0F0A308
:100CF3008FF0740AA4FFACF08EF0740AA42CFEAC3F
:100D0300F050010C8DF0740AA42CFDE435F0F0A32F
:050D1300DBDE74072285
:100D18003F8000004120000042C80000447A0000E3
:100D2800461C400047C35000497424004B18968065
:100D38004CBEBC205A0E1BCA6753C21C749DC5AE5C
:100D4800FB60065407601C2323120D76EB543860B1
:100D580009120D62120D711208F8ECF8EDF9EEFAAD
:100D6800EFCB22EB120D7180F1543803241C900D47
:100D780018FE93FC0EEE93FD0EEE930ECE93FF221B
:101779000216A0E493A3F8E493A34003F68001F2D0
:1017890008DFF48029E493A3F85407240CC8C33371
:10179900C4540F4420C8834004F456800146F6DF40
:1017A900E4800B0102040810204080901A35E47E81
:1017B900019360BCA3FF543F30E509541FFEE49335
:1017C900A360010ECF54C025E060A840B8E493A3FC
:1017D900FAE493A3F8E493A3C8C582C8CAC583CA27
:1017E900F0A3C8C582C8CAC583CADFE9DEE780BEDF
:011A3D0000A8
:100D8800E709F608DFFA8046E709F208DFFA803E4D
:100D980088828C83E709F0A3DFFA8032E309F6083A
:100DA800DFFA8078E309F208DFFA807088828C83A2
:100DB800E309F0A3DFFA806489828A83E0A3F60856
:100DC800DFFA805889828A83E0A3F208DFFA804C30
:100DD80080D280FA80C680D4806980F28033801007
:100DE80080A680EA809A80A880DA80E280CA803370
:100DF80089828A83ECFAE493A3C8C582C8CCC583E8
:100E0800CCF0A3C8C582C8CCC583CCDFE9DEE780B7
:100E18000D89828A83E493A3F608DFF9ECFAA9F036
:100E2800EDFB2289828A83ECFAE0A3C8C582C8CC8C
:100E3800C583CCF0A3C8C582C8CCC583CCDFEADEA5
:100E4800E880DB89828A83E493A3F208DFF980CC07
:100E580088F0EF60010E4E60C388F0ED2402B40400
:100E68000050B9F582EB2402B4040050AF232345A7
:060E78008223900DD873E7
:100E7E00BB010689828A83E0225002E722BBFE0272
:090E8E00E32289828A83E49322A5
:100E9700BB010CE58229F582E5833AF583E0225010
:100EA70006E92582F8E622BBFE06E92582F8E2225A
:0D0EB700E58229F582E5833AF583E4932274
:100EC400BB010689828A83F0225002F722BBFE010D
:020ED400F32207
:100ED600EF8DF0A4A8F0CF8CF0A428CE8DF0A42E30
:020EE600FE22EA
:0E0EE800C3E49FFFE49EFEE49DFDE49CFC221B
:100EF600EB9FF5F0EA9E42F0E99D42F0E89C45F052
:010F060022C8
:0C0F0700ECF0A3EDF0A3EEF0A3EFF0225D
:100F1300A8828583F0D083D082120F2A120F2A125F
:100F23000F2A120F2AE473E493A3C583C5F0C58384
:100F3300C8C582C8F0A3C583C5F0C583C8C582C828
:010F4300228B
:100F4400F8E0FBA3A3E0F925F0F0E5821582700236
:070F54001583E0FA38F022DA
:090F5B00EBF0A3EAF0A3E9F02297
:100F6400D083D082F8E4937012740193700DA3A31C
:100F740093F8740193F5828883E473740293686030
:060F8400EFA3A3A380DF30
:10193700EFB40A07740D121942740A309811A89966
:10194700B8130CC2983098FDA899C298B811F63010
:0719570099FDC299F59922E8
:00000001FF
